S013000048616E645F4D6F64756C652E73726563D1
S11300000C942A000C943F000C943F000C943F0085
S11300100C943F000C943F000C943F000C943F0060
S11300200C943F000C943F000C943F000C943F0050
S11300300C943F000C943F000C943F000C943F0040
S11300400C943F000C943F000C943F000C943F0030
S11300500C943F0011241FBECFE5D8E0DEBFCDBF16
S113006010E0A0E6B0E0E0E5FDE002C005900D92EE
S1130070AA3BB107D9F70E94D9010C94A6060C94A7
S11300800000CF93C82F60E089E00E94DE0281E087
S11300900E9460038F709C2F907F682F692B81E0F2
S11300A00E94720360E08BE00E94DE028FE891E020
S11300B00197F1F700C0000061E08BE00E94DE02CE
S11300C08FE19EE40197F1F700C0000081E00E94F7
S11300D0600390E1C99F900111248F70682F622BF7
S11300E081E00E94720360E08BE00E94DE028FE8F0
S11300F091E00197F1F700C0000061E08BE00E94FD
S1130100DE028FE39FE10197F1F700C00000CF9179
S1130110089560E089E00E94DE0260E08AE00E94C7
S1130120DE0261E08BE00E94DE022FEF89EF90E0B7
S1130130215080409040E1F700C0000083E30E941A
S1130140410082E30E94410088E20E94410086E06F
S11301500E9441008CE00E9441000895CF93C82F73
S113016061E089E00E94DE0281E00E9460038F70FA
S11301709C2F907F682F692B81E00E94720360E0BE
S11301808BE00E94DE028FE99FE00197F1F700C047
S1130190000061E08BE00E94DE028FE19EE40197A3
S11301A0F1F700C0000081E00E94600390E1C99F64
S11301B0900111248F70682F622B81E00E947203DA
S11301C060E08BE00E94DE028FE99FE00197F1F787
S11301D000C0000061E08BE00E94DE028FE39FE13B
S11301E00197F1F700C00000CF9108950F931F937A
S11301F0CF938C01C0E003C00E94AE00CF5FF80132
S1130200EC0FF11D80818111F7CFCF911F910F91D8
S113021008958F929F92AF92BF92CF92DF92EF9206
S1130220FF92CF934B015C01611571058105910526
S113023021F480E30E94AE005CC099235CF48DE25B
S11302400E94AE00B094A09490948094811C911C60
S1130250A11CB11CA5019401C12CD12C7601C3941D
S11302601CC0CA01B9012AE030E040E050E00E941D
S11302708706D701C601880F991FAA1FBB1F6C01EF
S11302807D01CC0CDD1CEE1CFF1CCC0CDD1CEE1C1B
S1130290FF1CC80ED91EEA1EFB1E2115310541059F
S11302A05105F9F6C701B6012AE030E040E050E01C
S11302B00E94650669017A0117C0C501B401A7014E
S11302C096010E946506C22F4B015C01C701B6016D
S11302D02AE030E040E050E00E94650669017A01BE
S11302E080E38C0F0E94AE00C114D104E104F10438
S11302F021F7CF91FF90EF90DF90CF90BF90AF9018
S11303009F908F900895813019F0823039F00895CC
S1130310862F8F7080680E9441000895862F8F7009
S1130320806C0E944100089581E00E94410008957C
S11303300E94B6020895CF92DF92EF92FF920E943C
S1130340C802BC01660F771F660F771F680F791FFD
S113035080E090E00E94410520E030EC4FE754E457
S11303600E94CF046B017C0120E030E0A9010E94CF
S1130370CA048823A9F0A701960160E070E080EA2E
S113038090E40E94CF0420E030E040E85FE30E9464
S11303905D0420E030E04AEF53E40E94F80504C015
S11303A060E070E882E794E4FF90EF90DF90CF90F4
S11303B00895CF93DF9300D000D000D0CDB7DEB73F
S11303C081E0898382E08A8383E08B8384E08C8369
S11303D00E9482030E9428040E9489001D8287E0F3
S11303E08E83CE0105960E9498010F2EF5E0FF2E14
S11303F0F02D00E010E01DC0E1E0F0E0EC0FFD1F87
S1130400E10FF11D80810E949B0120E030E843E967
S113041054E40E94F30518162CF4013069F0F12E0F
S113042001E006C0011104C00F2EF5E0FF2EF02DEF
S11304301F5F143008F304C00F2EF5E0FF2EF02DDB
S113044060E081E00E94830180EA90E00E94F6006F
S113045021E0F21671F0F21638F082E0F81671F02D
S113046093E0F91681F014C086E40E94AE001BE00C
S113047014C082E40E94AE001CE00FC082E50E941A
S1130480AE001DE00AC08CE40E94AE001EE005C070
S11304908CEA90E00E94F6001FE080E00E949B013D
S11304A04B015C0160E082E00E94830181EB90E0FB
S11304B00E94F60020E030E849E854E4C501B401A4
S11304C00E94CA04882334F460E070E0CB010E94E7
S11304D009013DC020E030E04FEA54E4C501B40115
S11304E00E94CA04882344F461E070E080E090E054
S11304F00E94090110612BC020E030E048EC54E474
S1130500C501B4010E94CA04882344F462E070E087
S113051080E090E00E940901106219C020E030E4FC
S113052042EE54E4C501B4010E94CA04882344F491
S113053063E070E080E090E00E940901106307C06E
S113054064E070E080E090E00E9409011064812F73
S11305500E9459042FEF83EC99E021508040904091
S1130560E1F700C000000E94940143CFFC01908198
S11305709295990F990F907C97B996B18181892BA7
S113058086B986B18F7D86B986B1806886B90895AB
S113059097B1907E97B997B18F71982B97B986B11F
S11305A0806486B9349BFECF86B1806186B924B15C
S11305B085B190E0982F8827822B0895982F9695DF
S11305C0969596958770913021F130F09230F1F143
S11305D0933009F458C00895613069F44BB321E0B5
S11305E030E0B90102C0660F771F8A95E2F7CB01AC
S11305F0842B8BBB08954BB321E030E0B90102C0DA
S1130600660F771F8A95E2F7CB01809584238BBB15
S11306100895613069F448B321E030E0B90102C0C3
S1130620660F771F8A95E2F7CB01842B88BB089568
S113063048B321E030E0B90102C0660F771F8A9504
S1130640E2F7CB018095842388BB0895613069F477
S113065045B321E030E0B90102C0660F771F8A95E7
S1130660E2F7CB01842B85BB089545B321E030E04C
S1130670B90102C0660F771F8A95E2F7CB01809516
S1130680842385BB0895613069F442B321E030E0EE
S1130690B90102C0660F771F8A95E2F7CB01842B5C
S11306A082BB089542B321E030E0B90102C0660F75
S11306B0771F8A95E2F7CB018095842382BB089546
S11306C0813041F028F0823039F0833039F008C0AD
S11306D08BB3089588B3089585B3089582B30895BC
S11306E080E00895813041F028F0823039F0833081
S11306F039F008956BBB089568BB089565BB0895F0
S113070062BB089580E0A0C0982F96959695969523
S1130710282F2770913061F138F0923009F44CC0E1
S1130720933009F46DC08FC0E82FF0E0EE0FFF1F87
S1130730E05AFF4F9081913069F49AB341E050E060
S1130740BA0102C0660F771F2A95E2F79B01292B95
S11307502ABB79C09AB341E050E0BA0102C0660FE7
S1130760771F2A95E2F79B01209529232ABB6BC0AA
S1130770E82FF0E0EE0FFF1FE05AFF4F9081913019
S113078069F497B341E050E0BA0102C0660F771FE5
S11307902A95E2F79B01292B27BB55C097B341E06B
S11307A050E0BA0102C0660F771F2A95E2F79B0159
S11307B02095292327BB47C0E82FF0E0EE0FFF1F49
S11307C0E05AFF4F9081913069F494B341E050E0D6
S11307D0BA0102C0660F771F2A95E2F79B01292B05
S11307E024BB31C094B341E050E0BA0102C0660FAB
S11307F0771F2A95E2F79B012095292324BB23C068
S1130800E82FF0E0EE0FFF1FE05AFF4F9081913088
S113081069F491B341E050E0BA0102C0660F771F5A
S11308202A95E2F79B01292B21BB0DC091B341E02E
S113083050E0BA0102C0660F771F2A95E2F79B01C8
S11308402095292321BB8F5F803208F45DCF089562
S11308508AB18F778AB98AB18F7B8AB98AB18F7D41
S11308608AB98AB188608AB98AB180618AB98AB141
S11308708B7F8AB980B5806880BD80B58F7B80BD51
S113088080B58F7E80BD80B58F7D80BD80B5877F2C
S113089080BD80B5826080BD80B5846080BD80B538
S11308A08E7F80BD8BB18D7F8BB987E689B910BCF3
S11308B008955D9BFECF8CB908955058BB27AA2795
S11308C00E9475040C94B9050E94AB0538F00E948F
S11308D0B20520F039F49F3F19F426F40C94A805CE
S11308E00EF4E095E7FB0C94A205E92F0E94CA05DB
S11308F058F3BA17620773078407950720F079F451
S1130900A6F50C94EC050EF4E0950B2EBA2FA02D51
S11309100B01B90190010C01CA01A0011124FF27A8
S1130920591B99F0593F50F4503E68F11A16F040A3
S1130930A22F232F342F4427585FF3CF46953795A2
S11309402795A795F0405395C9F77EF41F16BA0B67
S1130950620B730B840BBAF09150A1F0FF0FBB1F15
S1130960661F771F881FC2F70EC0BA0F621F731F5E
S1130970841F48F4879577956795B795F7959E3FBB
S113098008F0B0CF9395880F08F09927EE0F97954C
S1130990879508950E947E0508F481E008950E94D9
S11309A0E3040C94B9050E94B20558F00E94AB050B
S11309B040F029F45F3F29F00C94A20551110C94E6
S11309C0ED050C94A8050E94CA0568F39923B1F3B8
S11309D0552391F3951B550BBB27AA276217730761
S11309E0840738F09F5F5F4F220F331F441FAA1FF5
S11309F0A9F335D00E2E3AF0E0E832D091505040B1
S1130A00E695001CCAF72BD0FE2F29D0660F771F5E
S1130A10881FBB1F261737074807AB07B0E809F044
S1130A20BB0B802DBF01FF2793585F4F3AF09E3FC9
S1130A30510578F00C94A2050C94ED055F3FE4F3A6
S1130A40983ED4F3869577956795B795F7959F5F0C
S1130A50C9F7880F911D9695879597F90895E1E058
S1130A60660F771F881FBB1F621773078407BA07B7
S1130A7020F0621B730B840BBA0BEE1F88F7E09512
S1130A800895E89409C097FB3EF49095809570957D
S1130A9061957F4F8F4F9F4F9923A9F0F92F96E9C6
S1130AA0BB279395F695879577956795B795F1113B
S1130AB0F8CFFAF4BB0F11F460FF1BC06F5F7F4FD8
S1130AC08F4F9F4F16C0882311F096E911C07723EA
S1130AD021F09EE8872F762F05C0662371F096E8F3
S1130AE0862F70E060E02AF09A95660F771F881FC2
S1130AF0DAF7880F9695879597F90895990F000866
S1130B00550FAA0BE0E8FEEF16161706E807F907DB
S1130B10C0F012161306E407F50798F0621B730B76
S1130B20840B950B39F40A2661F0232B242B252BF7
S1130B3021F408950A2609F4A140A6958FEF811D9A
S1130B40811D089597F99F6780E870E060E008953B
S1130B509FEF80EC089500240A94161617061806D1
S1130B600906089500240A941216130614060506AD
S1130B700895092E0394000C11F4882352F0BB0F3E
S1130B8040F4BF2B11F460FF04C06F5F7F4F8F4FA1
S1130B909F4F089557FD9058440F551F59F05F3FDC
S1130BA071F04795880F97FB991F61F09F3F79F08B
S1130BB087950895121613061406551FF2CF46950D
S1130BC0F1DF08C0161617061806991FF1CF86958F
S1130BD07105610508940895E894BB276627772773
S1130BE0CB0197F908950E947E0508F48FEF0895CC
S1130BF00E940B060C94B9050E94AB0538F00E94C4
S1130C00B20520F0952311F00C94A2050C94A805CC
S1130C1011240C94ED050E94CA0570F3959FC1F34D
S1130C20950F50E0551F629FF001729FBB27F00D96
S1130C30B11D639FAA27F00DB11DAA1F649F6627EB
S1130C40B00DA11D661F829F2227B00DA11D621F3A
S1130C50739FB00DA11D621F839FA00D611D221FF4
S1130C60749F3327A00D611D231F849F600D211DD8
S1130C70822F762F6A2F11249F5750409AF0F1F05B
S1130C8088234AF0EE0FFF1FBB1F661F771F881FC4
S1130C9091505040A9F79E3F510580F00C94A20555
S1130CA00C94ED055F3FE4F3983ED4F38695779575
S1130CB06795B795F795E7959F5FC1F7FE2B880F6A
S1130CC0911D9695879597F90895A1E21A2EAA1B6E
S1130CD0BB1BFD010DC0AA1FBB1FEE1FFF1FA217E8
S1130CE0B307E407F50720F0A21BB30BE40BF50BE5
S1130CF0661F771F881F991F1A9469F7609570956E
S1130D00809590959B01AC01BD01CF010895052EFE
S1130D1097FB1EF400940E949E0657FD07D00E9484
S1130D20650607FC03D04EF40C949E06509540953E
S1130D30309521953F4F4F4F5F4F08959095809583
S1130D40709561957F4F8F4F9F4F0895F894FFCF13
S1130D50000000000000000000000000000000008F
S1130D600000010101010101010101010101010171
S1130D70000000000000000000000000000000006F
S1130D800000000001010101010101010101010153
S1130D90446972656374696F6E3A20004E6F204D2A
S10D0DA00053706565643A200000FA
S9030000FC
