S01200004D6F746F725F546573742E7372656302
S11300000C942A000C9447000C9447000C9447006D
S11300100C9447000C9447000C9447000C94470040
S11300200C9447000C9447000C9447000C94470030
S11300300C9447000C9482040C9447000C944700E1
S11300400C9447000C9447000C9447000C94470010
S11300500C94470011241FBECFE5D8E0DEBFCDBF0E
S113006010E0A0E6B0E0EAEFF9E002C005900D92DE
S1130070A63EB107D9F720E0A6EEB0E001C01D927C
S1130080A93EB207E1F70E9456020C94FB040C94BB
S113009000000E94F7030E94F90241E064E083E05B
S11300A00E94070341E065E083E00E94070341E00A
S11300B063E082E00E94070341E064E082E00E9482
S11300C0070341E065E082E00E94070341E066E047
S11300D082E00E940703089540E063E082E00E940A
S11300E07D0340E064E082E00E947D0340E065E03F
S11300F082E00E947D0340E066E082E00E947D038E
S113010008950E942B0440E063E082E00E947D0396
S113011041E064E082E00E947D0340E065E082E02B
S11301200E947D0341E066E082E00E947D03089521
S11301300E942B0441E063E082E00E947D0340E0E2
S113014064E082E00E947D0341E065E082E00E9479
S11301507D0340E066E082E00E947D0308950E94F2
S11301602B0440E063E082E00E947D0340E064E011
S113017082E00E947D0341E065E082E00E947D030D
S113018040E066E082E00E947D0308950E942B0413
S113019040E063E082E00E947D0341E064E082E0AD
S11301A00E947D0340E065E082E00E947D0340E020
S11301B066E082E00E947D030895CF93C82F40E05B
S11301C061E081E00E947D0340E062E081E00E9402
S11301D07D03C4FB442740F964E080E00E947D0372
S11301E0C5FB442740F965E080E00E947D03C6FB1F
S11301F0442740F966E080E00E947D034C2F441FB1
S11302004427441F67E080E00E947D0341E063E0EF
S113021081E00E947D038FE99FE00197F1F700C020
S1130220000040E063E081E00E947D034C2F4170B8
S113023064E080E00E947D03C1FB442740F965E04F
S113024080E00E947D03C2FB442740F966E080E021
S11302500E947D03C3FB442740F967E080E00E94CD
S11302607D0341E063E081E00E947D038FE99FE02C
S11302700197F1F700C0000040E063E081E00E94D4
S11302807D03CF91089541E061E081E00E9407037E
S113029041E062E081E00E94070341E063E081E025
S11302A00E94070341E064E080E00E94070341E00C
S11302B065E080E00E94070341E066E080E00E9480
S11302C0070341E067E080E00E9407032FEF83EF1C
S11302D091E0215080409040E1F700C0000040E0F0
S11302E061E081E00E947D0340E062E081E00E94E1
S11302F07D0340E064E080E00E947D0341E065E02E
S113030080E00E947D0340E066E080E00E947D037F
S113031040E067E080E00E947D0341E063E081E02B
S11303200E947D038FE99FE00197F1F700C0000070
S113033040E063E081E00E947D0388E20E94DD00EA
S113034090EF9A95F1F78FE00E94DD0020EF2A9557
S1130350F1F781E00E94DD008FE39FE10197F1F75F
S113036000C0000086E00E94DD000895CF93C82FEE
S113037041E061E081E00E947D0340E062E081E0D1
S11303800E947D03C4FB442740F964E080E00E949E
S11303907D03C5FB442740F965E080E00E947D03AE
S11303A0C6FB442740F966E080E00E947D034C2FA1
S11303B0441F4427441F67E080E00E947D0341E01E
S11303C063E081E00E947D038FE99FE00197F1F7EC
S11303D000C0000040E063E081E00E947D034C2FF8
S11303E0417064E080E00E947D03C1FB442740F932
S11303F065E080E00E947D03C2FB442740F966E08B
S113040080E00E947D03C3FB442740F967E080E05D
S11304100E947D0341E063E081E00E947D038FE957
S11304209FE00197F1F700C0000040E063E081E045
S11304300E947D03CF9108950F931F93CF9300974C
S113044029F40CC00E94B601CF5F02C08C01C0E049
S1130450F801EC0FF11D80818111F4CFCF911F9130
S11304600F910895813019F0823049F0089580E8A1
S1130470860F0E94DD0080EF8A95F1F7089580ECE5
S1130480860F0E94DD0080EF8A95F1F7089581E0E0
S11304900E94DD008FE39FE10197F1F700C00000A7
S11304A0089586EE90E00E94730408950E94F90274
S11304B00E9449000E9442040E9443010E94790460
S11304C00E94F30381E592E00E947D0480E690E0BF
S11304D00E941C022FEF83EC99E021508040904051
S11304E0E1F700C00000C091E600DC2FDF70C29588
S11304F0CF700E94470260E081E00E943202C23065
S1130500B9F028F4CC2341F0C13061F023C0C330EA
S1130510A9F0C430C9F01EC08AE690E00E941C0213
S1130520C0E01DC083E790E00E941C02CEE117C02A
S11305308CE790E00E941C02C2E311C085E890E0C1
S11305400E941C02CBE40BC08EE890E00E941C02C7
S1130550C4E605C087E990E00E941C02C0E060E0A8
S113056082E00E943202DD30D9F028F4DB3041F021
S1130570DC3071F02CC0DE30D9F0DF3009F127C057
S113058080EA90E00E941C028C2F0E94980027C0F1
S11305908CEA90E00E941C028C2F0E9481001FC0F4
S11305A088EB90E00E941C028C2F0E94C60017C0AA
S11305B084EC90E00E941C028C2F0E94AF000FC0BC
S11305C080ED90E00E941C020E946C0008C08CED3B
S11305D090E00E941C0280E090E00E946C002FEFEB
S11305E08BE49DE1215080409040E1F700C0000081
S11305F07ACF8FEF8ABB8FE487BB8FE784BB82E31C
S113060081BB84E08BBB18BA15BA12BA0895843042
S113061008F072C0683008F06FC0423008F06CC057
S1130620813001F130F08230B1F1833009F44CC0F3
S11306300895413059F42AB381E090E002C0880F54
S1130640991F6A95E2F7822B8ABB08952AB381E049
S113065090E002C0880F991F6A95E2F78095822383
S11306608ABB0895413059F427B381E090E002C079
S1130670880F991F6A95E2F7822B87BB089527B3E9
S113068081E090E002C0880F991F6A95E2F7809597
S1130690822387BB0895413059F424B381E090E06C
S11306A002C0880F991F6A95E2F7822B84BB0895D4
S11306B024B381E090E002C0880F991F6A95E2F7A5
S11306C08095822384BB0895413059F421B381E09D
S11306D090E002C0880F991F6A95E2F7822B81BBD4
S11306E0089521B381E090E002C0880F991F6A95B4
S11306F0E2F78095822381BB0895843008F072C0AC
S1130700683008F06FC0423008F06CC0813001F1ED
S113071030F08230B1F1833009F44CC00895413097
S113072059F42BB381E090E002C0880F991F6A95B9
S1130730E2F7822B8BBB08952BB381E090E002C0DB
S1130740880F991F6A95E2F7809582238BBB0895E1
S1130750413059F428B381E090E002C0880F991F1A
S11307606A95E2F7822B88BB089528B381E090E074
S113077002C0880F991F6A95E2F78095822388BB8F
S11307800895413059F425B381E090E002C0880F08
S1130790991F6A95E2F7822B85BB089525B381E002
S11307A090E002C0880F991F6A95E2F78095822332
S11307B085BB0895413059F422B381E090E002C032
S11307C0880F991F6A95E2F7822B82BB089522B3A2
S11307D081E090E002C0880F991F6A95E2F7809546
S11307E0822382BB08958FB780688FBF089541E04C
S11307F064E083E00E94070341E065E083E00E9437
S113080007038FB58E7F8FBD8FB582608FBD8EB588
S113081088608EBD8EB580618EBD8FB58F7B8FBD98
S11308208FB580688FBD8FB58F7E8FBD8FB5806289
S11308308FBD8EB581608EBD8EB58D7F8EBD8EB51C
S11308408B7F8EBD8FEF9FEF97BD86BD1BBC1ABCFF
S113085019BC18BC08958536A0F42FEF3FEF37BDBF
S113086026BD282F30E0AFEFBFEF0E94EC0424E652
S113087030E040E050E00E94CD043BBD2ABD39BDCC
S113088028BD08958AB18F778AB98AB18F7B8AB9D6
S11308908AB18F7D8AB98AB188608AB98AB1806148
S11308A08AB98AB18B7F8AB980B5806880BD80B5EA
S11308B08F7B80BD80B58F7E80BD80B58F7D80BDF0
S11308C080B5877F80BD80B5826080BD80B584603F
S11308D080BD80B58E7F80BD8BB18D7F8BB987E65F
S11308E089B910BC08955F9BFECF2CB1FC01208315
S11308F008958AB180688AB908959093E800809336
S1130900E70008951F920F920FB60F9211242F93B0
S11309103F934F935F936F937F938F939F93AF9383
S1130920BF93EF93FF93E091E700F091E8003097D5
S113093009F00995FF91EF91BF91AF919F918F912C
S11309407F916F915F914F913F912F910F900FBEC7
S11309500F901F901895A1E21A2EAA1BBB1BFD0134
S11309600DC0AA1FBB1FEE1FFF1FA217B307E4078A
S1130970F50720F0A21BB30BE40BF50B661F771FE2
S1130980881F991F1A9469F76095709580959095C2
S11309909B01AC01BD01CF010895052E97FB1EF408
S11309A000940E94E40457FD07D00E94AB0407FCA6
S11309B003D04EF40C94E404509540953095219561
S11309C03F4F4F4F5F4F0895909580957095619577
S11309D07F4F8F4F9F4F0895A29FB001B39FC001D7
S11309E0A39F700D811D1124911DB29F700D811D57
S10D09F01124911D0895F894FFCF1F
S11309FA436172206973204F4E0073706565643ACF
S1130A0A20300073706565643A203100737065653F
S1130A1A643A20320073706565643A203300737057
S1130A2A6565643A2034004E4F207370656564002E
S1130A3A446972656374696F6E3A46004469726503
S1130A4A6374696F6E3A4200446972656374696FCC
S1130A5A6E3A4C00446972656374696F6E3A520067
S1130A6A446972656374696F6E3A53004E6F7420F9
S1090A7A56616C69640082
S9030000FC
