S01200004361725F4D6F64756C652E7372656337
S11300000C942A000C9447000C9447000C9447006D
S11300100C9447000C9447000C9447000C94470040
S11300200C9447000C9447000C9447000C94470030
S11300300C9447000C94B4040C9447000C944700AF
S11300400C9447000C9447000C9447000C94470010
S11300500C94470011241FBECFE5D8E0DEBFCDBF0E
S113006010E0A0E6B0E0EEE5FAE002C005900D92E3
S1130070AC3EB107D9F720E0ACEEB0E001C01D9270
S1130080AE3EB207E1F70E9488020C942D050C9451
S113009000000E9429040E942B0341E064E083E0F5
S11300A00E94390341E065E083E00E94390341E0A6
S11300B063E082E00E94390341E064E082E00E9450
S11300C0390341E065E082E00E94390341E066E0E3
S11300D082E00E94390341E064E083E00E94AF03C0
S11300E041E065E083E00E94AF03089540E063E0EF
S11300F082E00E94AF0340E064E082E00E94AF032C
S113010040E065E082E00E94AF0340E066E082E008
S11301100E94AF0308950E945D0441E064E083E01F
S11301200E94390341E065E083E00E94390341E025
S113013063E082E00E94AF0340E064E082E00E945A
S1130140AF0341E065E082E00E94AF0340E066E077
S113015082E00E94AF0308950E945D0441E064E0E0
S113016083E00E94390341E065E083E00E943903A3
S113017040E063E082E00E94AF0341E064E082E09B
S11301800E94AF0340E065E082E00E94AF0341E0DB
S113019066E082E00E94AF0308950E945D0441E09E
S11301A064E083E00E94390341E065E083E00E945B
S11301B0390340E063E082E00E94AF0340E064E082
S11301C082E00E94AF0340E065E082E00E94AF035A
S11301D041E066E082E00E94AF0308950E945D045E
S11301E041E064E083E00E94390341E065E083E09C
S11301F00E94390340E063E082E00E94AF0341E0E3
S113020064E082E00E94AF0340E065E082E00E9487
S1130210AF0340E066E082E00E94AF030895CF930D
S1130220C82F40E061E081E00E94AF0340E062E05B
S113023081E00E94AF03C4FB442740F964E080E0FE
S11302400E94AF03C5FB442740F965E080E00E94AB
S1130250AF03C6FB442740F966E080E00E94AF0389
S11302604C2F441F4427441F67E080E00E94AF03E3
S113027041E063E081E00E94AF038FE99FE00197D2
S1130280F1F700C0000040E063E081E00E94AF03AA
S11302904C2F417064E080E00E94AF03C1FB44270F
S11302A040F965E080E00E94AF03C2FB442740F9B7
S11302B066E080E00E94AF03C3FB442740F967E097
S11302C080E00E94AF0341E063E081E00E94AF035D
S11302D08FE99FE00197F1F700C0000040E063E080
S11302E081E00E94AF03CF91089541E061E081E095
S11302F00E94390341E062E081E00E94390341E059
S113030063E081E00E94390341E064E080E00E9400
S1130310390341E065E080E00E94390341E066E092
S113032080E00E94390341E067E080E00E943903E5
S11303302FEF83EF91E0215080409040E1F700C01F
S1130340000040E061E081E00E94AF0340E062E031
S113035081E00E94AF0340E064E080E00E94AF03CC
S113036041E065E080E00E94AF0340E066E080E0A9
S11303700E94AF0340E067E080E00E94AF0341E0E9
S113038063E081E00E94AF038FE99FE00197F1F7FA
S113039000C0000040E063E081E00E94AF0388E217
S11303A00E940F0190EF9A95F1F78FE00E940F01E0
S11303B020EF2A95F1F781E00E940F018FE39FE17E
S11303C00197F1F700C0000086E00E940F01089534
S11303D0CF93C82F41E061E081E00E94AF0340E089
S11303E062E081E00E94AF03C4FB442740F964E06B
S11303F080E00E94AF03C5FB442740F965E080E03C
S11304000E94AF03C6FB442740F966E080E00E94E7
S1130410AF034C2F441F4427441F67E080E00E9431
S1130420AF0341E063E081E00E94AF038FE99FE006
S11304300197F1F700C0000040E063E081E00E9412
S1130440AF034C2F417064E080E00E94AF03C1FB16
S1130450442740F965E080E00E94AF03C2FB4427D3
S113046040F966E080E00E94AF03C3FB442740F9F3
S113047067E080E00E94AF0341E063E081E00E9416
S1130480AF038FE99FE00197F1F700C0000040E05F
S113049063E081E00E94AF03CF9108950F931F930F
S11304A0CF93009729F40CC00E94E801CF5F02C0EB
S11304B08C01C0E0F801EC0FF11D80818111F4CFB3
S11304C0CF911F910F910895813019F0823049F036
S11304D0089580E8860F0E940F0180EF8A95F1F756
S11304E0089580EC860F0E940F0180EF8A95F1F742
S11304F0089581E00E940F018FE39FE10197F1F7D6
S113050000C00000089580E690E00E94A5040895CC
S11305100E942B030E9449000E9474040E947501EA
S113052083E892E00E94AF040E94AB040E94250479
S113053081E690E00E944E022FEF83EC99E0215077
S113054080409040E1F700C00000C0916000DC2FC3
S1130550DF70C295CF700E94790260E081E00E9452
S11305606402C230B9F028F4CC2341F0C13061F008
S113057023C0C330A9F0C430C9F01EC08BE690E09C
S11305800E944E02C0E01DC084E790E00E944E022B
S1130590CEE117C08DE790E00E944E02C2E311C085
S11305A086E890E00E944E02CBE40BC08FE890E016
S11305B00E944E02C4E605C088E990E00E944E0203
S11305C0C0E060E082E00E946402DD30D9F028F4EB
S11305D0DB3041F0DC3071F02DC0DE30D9F0DF309B
S11305E009F128C081EA90E00E944E028C2F0E94FB
S11305F0AC0027C08EEA90E00E944E028C2F0E942D
S11306008B001FC08BEB90E00E944E028C2F0E9447
S1130610CD0017C088EC90E00E944E028C2F0E94FF
S1130620EE000FC085ED90E00E944E0280E00E9433
S1130630760007C081EE90E00E944E0280E00E94A6
S113064076002FEF85EA9EE0215080409040E1F74C
S113065000C000007ACF8FEF8ABB8FE487BB8FE79F
S113066084BB82E381BB84E08BBB18BA15BA12BA8F
S11306700895843008F072C0683008F06FC04230CA
S113068008F06CC0813001F130F08230B1F1833078
S113069009F44CC00895413059F42AB381E090E044
S11306A002C0880F991F6A95E2F7822B8ABB0895CE
S11306B02AB381E090E002C0880F991F6A95E2F79F
S11306C0809582238ABB0895413059F427B381E091
S11306D090E002C0880F991F6A95E2F7822B87BBCE
S11306E0089527B381E090E002C0880F991F6A95AE
S11306F0E2F78095822387BB0895413059F424B3EF
S113070081E090E002C0880F991F6A95E2F7822B7E
S113071084BB089524B381E090E002C0880F991F40
S11307206A95E2F78095822384BB0895413059F499
S113073021B381E090E002C0880F991F6A95E2F727
S1130740822B81BB089521B381E090E002C0880F21
S1130750991F6A95E2F78095822381BB08958430BE
S113076008F072C0683008F06FC0423008F06CC006
S1130770813001F130F08230B1F1833009F44CC0A2
S11307800895413059F42BB381E090E002C0880F02
S1130790991F6A95E2F7822B8BBB08952BB381E0F6
S11307A090E002C0880F991F6A95E2F78095822332
S11307B08BBB0895413059F428B381E090E002C026
S11307C0880F991F6A95E2F7822B88BB089528B396
S11307D081E090E002C0880F991F6A95E2F7809546
S11307E0822388BB0895413059F425B381E090E019
S11307F002C0880F991F6A95E2F7822B85BB089582
S113080025B381E090E002C0880F991F6A95E2F752
S11308108095822385BB0895413059F422B381E049
S113082090E002C0880F991F6A95E2F7822B82BB81
S1130830089522B381E090E002C0880F991F6A9561
S1130840E2F78095822382BB08958FB780688FBFBB
S1130850089541E064E083E00E94390341E065E0EB
S113086083E00E9439038FB58E7F8FBD8FB5826080
S11308708FBD8EB588608EBD8EB580618EBD8FB5FF
S11308808F7B8FBD8FB580688FBD8FB58F7E8FBDF9
S11308908FB580628FBD8EB581608EBD8EB58D7F24
S11308A08EBD8EB58B7F8EBD8FEF9FEF97BD86BDBE
S11308B01BBC1ABC19BC18BC08958536A0F42FEFD4
S11308C03FEF37BD26BD282F30E0AFEFBFEF0E94CA
S11308D01E0524E630E040E050E00E94FF043BBDEA
S11308E02ABD39BD28BD08958AB18F778AB98AB1E6
S11308F08F7B8AB98AB18F7D8AB98AB188608AB9B7
S11309008AB180618AB98AB18B7F8AB980B58068DF
S113091080BD80B58F7B80BD80B58F7E80BD80B566
S11309208F7D80BD80B5877F80BD80B5826080BDAE
S113093080B5846080BD80B58E7F80BD8BB18D7F96
S11309408BB987E689B910BC08955F9BFECF2CB1A3
S1130950FC01208308958AB180688AB90895909330
S1130960ED008093EC0008951F920F920FB60F9242
S113097011242F933F934F935F936F937F938F93A0
S11309809F93AF93BF93EF93FF93E091EC00F091AB
S1130990ED00309709F00995FF91EF91BF91AF9168
S11309A09F918F917F916F915F914F913F912F9183
S11309B00F900FBE0F901F901895A1E21A2EAA1B3C
S11309C0BB1BFD010DC0AA1FBB1FEE1FFF1FA217FB
S11309D0B307E407F50720F0A21BB30BE40BF50BF8
S11309E0661F771F881F991F1A9469F76095709581
S11309F0809590959B01AC01BD01CF010895052E12
S1130A0097FB1EF400940E94160557FD07D00E9420
S1130A10DD0407FC03D04EF40C9416055095409564
S1130A20309521953F4F4F4F5F4F08959095809596
S1130A30709561957F4F8F4F9F4F0895A29FB0018E
S1130A40B39FC001A39F700D811D1124911DB29FFE
S1110A50700D811D1124911D0895F894FFCF9F
S1130A5E0F436172206973204F4E005370656564B5
S1130A6E3A20300053706565643A20310053706546
S1130A7E65643A20320053706565643A203300533E
S1130A8E706565643A2034004E4F2073706565645A
S1130A9E00446972656374696F6E3A204600446956
S1130AAE72656374696F6E3A2042004469726563BD
S1130ABE74696F6E3A205200446972656374696F8B
S1130ACE6E3A204C00446972656374696F6E3A53D2
S10F0ADE004E6F742056616C69640000C7
S9030000FC
