S01200004D6F746F725F546573742E7372656302
S11300000C942A000C943F000C943F000C943F0085
S11300100C943F000C943F000C943F000C943F0060
S11300200C943F000C943F000C943F000C943F0050
S11300300C943F000C943F000C943F000C943F0040
S11300400C943F000C943F000C943F000C943F0030
S11300500C943F0011241FBECFE5D8E0DEBFCDBF16
S113006010E0A0E6B0E0ECEAFCE002C005900D92DE
S1130070A43DB107D9F70E947B020C9454060C945A
S113008000000E940D040E94130341E060E080E040
S11300900E94210341E061E080E00E94210341E0ED
S11300A062E080E00E94210341E063E080E00E947E
S11300B0210341E064E080E00E94210341E065E027
S11300C080E00E94210341E060E080E00E94970309
S11300D041E061E080E00E949703089540E062E01F
S11300E080E00E94970340E063E080E00E94970371
S11300F040E064E080E00E94970340E065E080E037
S11301000E94970308950E94390441E060E080E072
S11301100E94210341E061E080E00E94210341E06C
S113012062E080E00E94970340E063E080E00E9488
S1130130970341E064E080E00E94970340E065E0BB
S113014080E00E94970308950E94390441E060E032
S113015080E00E94210341E061E080E00E942103ED
S113016040E062E080E00E94970341E063E080E0C9
S11301700E94970340E064E080E00E94970341E01E
S113018065E080E00E94970308950E94390441E0ED
S113019060E080E00E94210341E061E080E00E9491
S11301A0210340E062E080E00E94970340E063E0C6
S11301B080E00E94970340E064E080E00E9497039F
S11301C041E065E080E00E94970308950E943904AD
S11301D041E060E080E00E94210341E061E080E0D2
S11301E00E94210340E062E080E00E94970341E026
S11301F063E080E00E94970340E064E080E00E94B6
S1130200970340E065E080E00E9497030895CF9350
S1130210C82F40E060E082E00E94970340E061E084
S113022082E00E949703C4FB442740F963E082E024
S11302300E949703C5FB442740F964E082E00E94D2
S11302409703C6FB442740F965E082E00E949703C8
S11302504C2F441F4427441F66E082E00E9497030A
S113026041E062E082E00E9497038FE99FE00197FA
S1130270F1F700C0000040E062E082E00E949703D2
S11302804C2F417063E082E00E949703C1FB442736
S113029040F964E082E00E949703C2FB442740F9DE
S11302A065E082E00E949703C3FB442740F966E0BF
S11302B082E00E94970341E062E082E00E9497039B
S11302C08FE99FE00197F1F700C0000040E062E091
S11302D082E00E949703CF91089541E060E082E0BC
S11302E00E94210341E061E082E00E94210341E099
S11302F062E082E00E94210341E063E082E00E9428
S1130300210341E064E082E00E94210341E065E0D2
S113031082E00E94210341E066E082E00E94210322
S11303202FEF83EF91E0215080409040E1F700C02F
S1130330000040E060E082E00E94970340E061E05A
S113034082E00E94970340E063E082E00E9497030A
S113035041E064E082E00E94970340E065E082E0CF
S11303600E94970340E066E082E00E94970341E028
S113037062E082E00E9497038FE99FE00197F1F722
S113038000C0000040E062E082E00E94970388E23F
S11303900E94070190EF9A95F1F78FE00E94070100
S11303A020EF2A95F1F781E00E9407018FE39FE196
S11303B00197F1F700C0000086E00E94070108954C
S11303C0CF93C82F41E060E082E00E94970340E0B1
S11303D061E082E00E949703C4FB442740F963E094
S11303E082E00E949703C5FB442740F964E082E061
S11303F00E949703C6FB442740F965E082E00E940F
S113040097034C2F441F4427441F66E082E00E9458
S1130410970341E062E082E00E9497038FE99FE046
S11304200197F1F700C0000040E062E082E00E9422
S113043097034C2F417063E082E00E949703C1FB55
S1130440442740F964E082E00E949703C2FB4427FA
S113045040F965E082E00E949703C3FB442740F91A
S113046066E082E00E94970341E062E082E00E943D
S113047097038FE99FE00197F1F700C0000040E087
S113048062E082E00E949703CF9108950F931F9337
S1130490CF93009729F40CC00E94E001CF5F02C003
S11304A08C01C0E0F801EC0FF11D80818111F4CFC3
S11304B0CF911F910F910895813019F0823049F046
S11304C0089580E8860F0E94070180EF8A95F1F76E
S11304D0089580EC860F0E94070180EF8A95F1F75A
S11304E0089581E00E9407018FE39FE10197F1F7EE
S11304F000C0000008950E9413030E9441000E945E
S113050083040E946D0180E690E00E9446022FEF72
S113051083EC99E0215080409040E1F700C0000056
S11305200E9471020E94B404C82F0E94B404D82F00
S113053060E081E00E945C02D230B9F028F4DD234F
S113054041F0D13061F023C0D330A9F0D430C9F0E8
S11305501EC08AE690E00E944602D0E019C083E7FC
S113056090E00E944602DEE113C08CE790E00E9416
S11305704602D2E30DC085E890E00E944602DBE427
S113058007C08EE890E00E944602D4E601C0D0E0A5
S113059060E082E00E945C02CC34D9F028F4C234DA
S11305A081F0C63431F02DC0CE3419F1C235C9F012
S11305B028C087E990E00E9446028D2F0E94A40083
S11305C026C083EA90E00E9446028D2F0E94830099
S11305D01EC08FEA90E00E9446028D2F0E94E60022
S11305E016C08BEB90E00E9446028D2F0E94C5003E
S11305F00EC087EC90E00E94460280E00E946E00EC
S113060006C08EE40E94E00180E00E946E002FEF9D
S113061087E893E1215080409040E1F700C000005A
S11306200E9471027FCF8FEF8ABB8FE487BB8FE775
S113063084BB82E381BB84E08BBB18BA15BA12BABF
S11306400895843008F072C0683008F06FC04230FA
S113065008F06CC0813001F130F08230B1F18330A8
S113066009F44CC00895413059F42AB381E090E074
S113067002C0880F991F6A95E2F7822B8ABB0895FE
S11306802AB381E090E002C0880F991F6A95E2F7CF
S1130690809582238ABB0895413059F427B381E0C1
S11306A090E002C0880F991F6A95E2F7822B87BBFE
S11306B0089527B381E090E002C0880F991F6A95DE
S11306C0E2F78095822387BB0895413059F424B31F
S11306D081E090E002C0880F991F6A95E2F7822BAF
S11306E084BB089524B381E090E002C0880F991F71
S11306F06A95E2F78095822384BB0895413059F4CA
S113070021B381E090E002C0880F991F6A95E2F757
S1130710822B81BB089521B381E090E002C0880F51
S1130720991F6A95E2F78095822381BB08958430EE
S113073008F072C0683008F06FC0423008F06CC036
S1130740813001F130F08230B1F1833009F44CC0D2
S11307500895413059F42BB381E090E002C0880F32
S1130760991F6A95E2F7822B8BBB08952BB381E026
S113077090E002C0880F991F6A95E2F78095822362
S11307808BBB0895413059F428B381E090E002C056
S1130790880F991F6A95E2F7822B88BB089528B3C6
S11307A081E090E002C0880F991F6A95E2F7809576
S11307B0822388BB0895413059F425B381E090E049
S11307C002C0880F991F6A95E2F7822B85BB0895B2
S11307D025B381E090E002C0880F991F6A95E2F783
S11307E08095822385BB0895413059F422B381E07A
S11307F090E002C0880F991F6A95E2F7822B82BBB2
S1130800089522B381E090E002C0880F991F6A9591
S1130810E2F78095822382BB089541E064E083E09F
S11308200E94210341E065E083E00E9421038FB52B
S11308308E7F8FBD8FB582608FBD8EB588608EBD73
S11308408EB580618EBD8FB58F7B8FBD8FB580686F
S11308508FBD8FB58F7E8FBD8FB580628FBD8EB5F6
S113086081608EBD8EB582608EBD8EB58B7F8EBD50
S11308700895CF93DF93853608F042C027E833E12B
S113088037BD26BDC82FD0E086B597B50196C89F61
S1130890B001C99F700DD89F700D112480E090E0C5
S11308A00E94C60520E030E048EC52E40E94250591
S11308B020E030E040E85FE30E94B8040E9497051E
S11308C07BBD6ABD86B597B50196C89FB001C99F27
S11308D0700DD89F700D112480E090E00E94C60531
S11308E020E030E048EC52E40E94250520E030E0AE
S11308F040E85FE30E94B8040E94970579BD68BD93
S1130900DF91CF9108958AB18F778AB98AB18F7BAD
S11309108AB98AB18F7D8AB98AB188608AB98AB165
S113092080618AB98AB18B7F8AB980B5806880BDBD
S113093080B58F7B80BD80B58F7E80BD80B58F7D77
S113094080BD80B5877F80BD80B5826080BD80B565
S1130950846080BD80B58E7F80BD8BB18D7F8BB967
S113096087E689B910BC08955F9BFECF8CB10895CA
S11309705058BB27AA270E94D0040C941A060E9440
S11309800C0638F00E94130620F039F49F3F19F446
S113099026F40C9409060EF4E095E7FB0C94030688
S11309A0E92F0E942B0658F3BA17620773078407CE
S11309B0950720F079F4A6F50C944D060EF4E09515
S11309C00B2EBA2FA02D0B01B90190010C01CA0105
S11309D0A0011124FF27591B99F0593F50F4503EB0
S11309E068F11A16F040A22F232F342F4427585FA2
S11309F0F3CF469537952795A795F0405395C9F7BA
S1130A007EF41F16BA0B620B730B840BBAF0915071
S1130A10A1F0FF0FBB1F661F771F881FC2F70EC010
S1130A20BA0F621F731F841F48F4879577956795E3
S1130A30B795F7959E3F08F0B0CF9395880F08F0CF
S1130A409927EE0F9795879508950E9439050C9480
S1130A501A060E94130658F00E940C0640F029F46E
S1130A605F3F29F00C94030651110C944E060C942C
S1130A7009060E942B0668F39923B1F3552391F3D9
S1130A80951B550BBB27AA2762177307840738F0F9
S1130A909F5F5F4F220F331F441FAA1FA9F335D056
S1130AA00E2E3AF0E0E832D091505040E695001C0A
S1130AB0CAF72BD0FE2F29D0660F771F881FBB1FC4
S1130AC0261737074807AB07B0E809F0BB0B802DA2
S1130AD0BF01FF2793585F4F3AF09E3F510578F0CE
S1130AE00C9403060C944E065F3FE4F3983ED4F353
S1130AF0869577956795B795F7959F5FC9F7880FA2
S1130B00911D9695879597F90895E1E0660F771FF3
S1130B10881FBB1F621773078407BA0720F0621B84
S1130B20730B840BBA0BEE1F88F7E09508950E94AF
S1130B30330688F09F5798F0B92F9927B751B0F032
S1130B40E1F0660F771F881F991F1AF0BA95C9F74D
S1130B5014C0B13091F00E944D06B1E008950C9498
S1130B604D06672F782F8827B85F39F0B93FCCF34B
S1130B70869577956795B395D9F73EF490958095CA
S1130B80709561957F4F8F4F9F4F0895E89409C0EA
S1130B9097FB3EF490958095709561957F4F8F4FAC
S1130BA09F4F9923A9F0F92F96E9BB279395F695C2
S1130BB0879577956795B795F111F8CFFAF4BB0F40
S1130BC011F460FF1BC06F5F7F4F8F4F9F4F16C0A4
S1130BD0882311F096E911C0772321F09EE8872F2E
S1130BE0762F05C0662371F096E8862F70E060E0EA
S1130BF02AF09A95660F771F881FDAF7880F969563
S1130C00879597F9089597F99F6780E870E060E009
S1130C1008959FEF80EC089500240A941616170691
S1130C2018060906089500240A94121613061406D9
S1130C3005060895092E0394000C11F4882352F03C
S1130C40BB0F40F4BF2B11F460FF04C06F5F7F4FF4
S1130C508F4F9F4F089557FD9058440F551F59F0DB
S1130C605F3F71F04795880F97FB991F61F09F3F95
S1130C7079F087950895121613061406551FF2CFBE
S1130C804695F1DF08C0161617061806991FF1CF0E
S1130C9086957105610508940895E894BB27662735
S10F0CA07727CB0197F90895F894FFCF53
S1130CAC436172206973204F4E0073706565643A1A
S1130CBC20300073706565643A203100737065658B
S1130CCC643A20320073706565643A2033007370A3
S1130CDC6565643A203400446972656374696F6EA7
S1130CEC3A4600446972656374696F6E3A42004413
S1130CFC6972656374696F6E3A4C0044697265631A
S1130D0C74696F6E3A5200446972656374696F6EEC
S1070D1C3A53000042
S9030000FC
